:100000000C942D010C9455010C9455010C94550140
:100010000C9455010C9455010C9455010C94550108
:100020000C9455010C945A080C9455010C945501EC
:100030000C9455010C9455010C9455010C945501E8
:100040000C9494040C9455010C947F0E0C94B10EF6
:100050000C9455010C9455010C9455010C945501C8
:100060000C94D2010C9455016E616E00696E6600AD
:1000700000407A10F35A00A0724E18090010A5D45F
:10008000E80000E87648170000E40B54020000CABC
:100090009A3B000000E1F505000080969800000002
:1000A00040420F000000A086010000001027000061
:1000B0000000E803000000006400000000000A00E7
:1000C000000000000100000000002C76D888DC67EA
:1000D0004F0823DFC1DFAE59E1B1B796E5E3E45342
:1000E000C63AE651997696E8E6C28426EB898C9B5F
:1000F00062ED407C6FFCEFBC9C9F40F2BAA56FA5FF
:10010000F490055A2AF75C936B6CF9676DC11BFC80
:10011000E0E40D47FEF520E6B500D0ED902E03009B
:10012000943577050080841E080000204E0A0000E8
:1001300000C80C333333330F986E12831141EF8DA7
:100140002114893BE65516CFFEE6DB18D1844B38E7
:100150001BF77C1D901DA4BBE424203284725E2218
:100160008100C9F124ECA1E53D27636F6E666967E4
:100170007572696E672074696D6520287265717586
:10018000657374696E67205554432074696D6529E1
:100190002E2E2E00646F6E652E002E2E2E00636FA5
:1001A0006E6669677572696E6720524430322077D7
:1001B00069746820616464726573732030780064C8
:1001C0006F6E652E00616464696E6720737065638D
:1001D00069616C20636861726163746572732E2E4D
:1001E0002E00646F6E652E002E2E2E0073657474C3
:1001F000696E67207570204C4344303520776974F0
:1002000068206164647265737320307800000000B8
:1002100000250028002B0004040404040404040244
:100220000202020202030303030303010204081093
:100230002040800102040810200102040810200060
:100240000000080002010000030407000000000095
:1002500000000000060DE10ECD1311241FBECFEFEC
:10026000D8E0DEBFCDBF12E0A0E0B1E0EAE0F1E40B
:1002700002C005900D92A032B107D9F724E0A0E2A8
:10028000B2E001C01D92AD3DB207E1F711E0CDE251
:10029000D1E004C02197FE010E94EF1FCA32D107AE
:1002A000C9F70E9458110C94A61B0C94000090E012
:1002B000FC01E15CFD4F3491FC01E55DFD4F2491B3
:1002C000FC01E95EFD4FE491EE2309F43BC03323CA
:1002D00039F1333091F038F43130A9F0323001F592
:1002E00084B58F7D12C0373091F03830A1F03430B2
:1002F000B9F4809180008F7D03C0809180008F775A
:10030000809380000DC084B58F7784BD09C0809133
:10031000B0008F7703C08091B0008F7D8093B000D4
:10032000F0E0EE0FFF1FE35FFD4FA591B4918FB793
:10033000F894EC91611103C020952E2301C02E2B5F
:100340002C938FBF089585ED8093BC008091BC00F5
:1003500084FDFCCF1092710208953FB7F89480910C
:10036000250290912602A0912702B091280226B57D
:10037000A89B05C02F3F19F00196A11DB11D3FBFDD
:10038000BA2FA92F982F8827820F911DA11DB11D6B
:10039000BC01CD0142E0660F771F881F991F4A9567
:1003A000D1F708951F920F920FB60F9211242F9339
:1003B0003F934F935F936F937F938F939F93AF93ED
:1003C000BF93EF93FF938091B900887F803609F443
:1003D0009CC068F5883209F45BC090F4803109F460
:1003E00054C038F4882309F4F6C0883009F44DC0AD
:1003F000F6C0883109F44CC0803209F45DC0EFC00A
:10040000803409F468C048F4803309F455C0883357
:1004100009F0E5C080937002D8C0803509F44FC060
:10042000883509F45DC0883409F0D9C0D6C0883950
:1004300009F4C7C0A8F4883709F467C038F48836CF
:1004400009F463C0803709F460C0C9C0883809F472
:10045000B8C0803909F45FC0803809F0C0C05BC003
:10046000803B09F486C038F4803A09F466C0883AC3
:1004700009F47FC0B4C0803C09F4A7C0883C09F4EB
:10048000A4C0883B09F48AC0AAC08091960210C01B
:100490009091950280919402981770F5E0919502E1
:1004A00081E08E0F80939502F0E0EC58FD4F808143
:1004B0008093BB0085EC86C0809370028EC0E09173
:1004C000950281E08E0F809395028091BB00F0E051
:1004D000EC58FD4F808390919502809194026EC0FC
:1004E000E091950281E08E0F809395028091BB0090
:1004F000F0E0EC58FD4F80838091730281116DC054
:1005000081E08093720284EA61C083E0809371028B
:1005100010926F02CFCF80916F02803208F051C0ED
:10052000E0916F0281E08E0F80936F028091BB009B
:10053000F0E0E15BFD4F8083BDCF85EC8093BC0094
:100540001092710280916F02803230F4E0916F025C
:10055000F0E0E15BFD4F108260916F0270E0E0918E
:100560004D02F0914E028FE492E0099510926F02D5
:1005700036C084E08093710210924C0210924B02BC
:10058000E0914902F0914A02099580914B02811154
:1005900005C081E080934B0210922902E0914C0249
:1005A00081E08E0F80934C02F0E0E75DFD4F80818B
:1005B0008093BB0090914C0280914B02981708F4F5
:1005C00079CF85E88093BC000AC085EC8093BC009D
:1005D0001092710204C0109270020E94A301FF9158
:1005E000EF91BF91AF919F918F917F916F915F91AB
:1005F0004F913F912F910F900FBE0F901F90189524
:1006000090934A0280934902089590934E028093FA
:100610004D02089540914B02262F30E0240F311DEA
:1006200021323105DCF4209171022430C9F4FC013F
:1006300080E090E0861758F430914B022191DC0164
:10064000A75DBD4FA30FB11D2C930196F3CF8091F1
:100650004B02680F60934B0280E0089581E008959B
:1006600082E008950F93413208F04AC090917102E0
:100670009111FCCF32E030937102009373023FEF8F
:10068000309370021092950240939402FB0164E74C
:1006900072E0DB013A2F361B341718F431913D9389
:1006A000F9CF1092960230919602880F832B809397
:1006B000960280917202813061F4109272028091F0
:1006C00096028093BB008091BC0083FDF8CF85EC3F
:1006D00001C085EE8093BC00222321F0809171023D
:1006E0008230D1F3809170028F3F79F08091700257
:1006F000803241F080917002803331F094E005C087
:1007000091E003C092E001C093E0892F0F9108951A
:10071000413208F043C0909171029111FCCF91E0F9
:1007200090937102209373022FEF20937002109226
:100730009502240F20939402909396029091960232
:10074000880F892B8093960280917202813061F428
:1007500010927202809196028093BB008091BC003F
:1007600083FDF8CF85EC01C085EE8093BC008091BD
:1007700071028130E1F380919502841710F4409169
:10078000950224E732E0FB01D9018A2F821B8417EE
:1007900018F48D918193F9CF842F089580E0089506
:1007A0009B01AC0160E074E284EF90E00E94CD1FF9
:1007B000DA01C9014097A109B109B695A7959795A6
:1007C00087958093B8000895880F8093BA000895A4
:1007D000ECEBF0E080818A7B808360E082E10E9424
:1007E000570160E083E10C9457011092710281E09F
:1007F000809373021092720261E082E10E945701BD
:1008000061E083E10E945701E9EBF0E080818E7F97
:10081000808380818D7F808388E48093B80085E425
:100820008093BC000895789484B5826084BD84B5BB
:10083000816084BD85B5826085BD85B5816085BDDB
:10084000EEE6F0E0808181608083E1E8F0E01082F4
:10085000808182608083808181608083E0E8F0E035
:10086000808181608083E1EBF0E08081846080831F
:10087000E0EBF0E0808181608083EAE7F0E0808156
:1008800084608083808182608083808181608083B6
:100890008081806880831092C10008958F929F921A
:1008A000AF92BF92CF92DF92EF92FF926B017C01E9
:1008B0000E94AD014B015C01C114D104E104F104BB
:1008C000F1F00E94AD01DC01CB0188199909AA0958
:1008D000BB09883E9340A105B10570F321E0C21A1F
:1008E000D108E108F10888EE880E83E0981EA11C6B
:1008F000B11CC114D104E104F10419F7DDCFFF905C
:10090000EF90DF90CF90BF90AF909F908F90089521
:100910002FB7F894609121027091220280912302F6
:10092000909124022FBF08951F920F920FB60F923D
:1009300011242F933F938F939F93AF93BF938091F5
:10094000210290912202A0912302B09124023091C1
:10095000200223E0230F2D3720F40196A11DB11DA5
:1009600005C026E8230F0296A11DB11D2093200289
:100970008093210290932202A0932302B093240239
:100980008091250290912602A0912702B091280221
:100990000196A11DB11D8093250290932602A0937C
:1009A0002702B0932802BF91AF919F918F913F9101
:1009B0002F910F900FBE0F901F901895A3E1B0E0FC
:1009C000E4EEF4E00C9417206C014B012A01FC01C9
:1009D00017821682838181FF43C3AE014F5F5F4F51
:1009E0003A01F6019381F40193FD859193FF819182
:1009F0004F01882309F430C3853239F493FD859182
:100A000093FF81914F01853239F4B60190E00E9445
:100A1000BD1C52012501E5CF10E0F12C20E0203271
:100A2000A0F48B3269F030F4803259F0833269F4EB
:100A300020612CC08D3239F0803339F4216026C01A
:100A40002260246023C0286021C027FD27C030ED2C
:100A5000380F3A3078F426FF06C0FAE01F9F300DB9
:100A60001124132F13C04AE0F49E300D1124F32EED
:100A700020620CC08E3221F426FDEEC2206406C036
:100A80008C3611F4206802C0883641F4F40193FDDD
:100A9000859193FF81914F018111C1CF9BEB980FFD
:100AA000933018F42061805E06C09BE9980F933064
:100AB00008F071C12F7E26FF16E02F73322E853687
:100AC00019F42064322E08C0863621F4F22FF06823
:100AD0003F2E02C01111115037FE07C01C3350F4D5
:100AE000EE24E394E10E27E00BC0183038F027E045
:100AF00017E005C027E04CE3E42E02C0212FE12CD3
:100B0000520144E0A40EB11CF20160817181828126
:100B100093810E2DA3010E94A91B2C01098100FFC6
:100B200002C003FF07C031FC08C032FE09C030E23A
:100B3000232E07C02DE2222E04C09BE2292E01C0E5
:100B4000212C802F8C7019F0211068C2A8C237FEAA
:100B50000FC0E40C04FF04C08A81813309F4EA94D5
:100B60001E1474F5F8E0FE1578F588E0E82E2CC028
:100B700036FC2AC0812F90E0841595059CF02CEF5F
:100B800042162FEF520674F0432D4068342E0AC0EF
:100B9000E2E0F0E0EC0FFD1FE10FF11D80818033FA
:100BA00019F411501111F4CF37FE0EC0EE24E39466
:100BB000E10E812F90E0481659062CF4141904C058
:100BC000EE24E39401C010E037FE06C014141504AF
:100BD00034F4C201019605C085E090E002C081E0D6
:100BE00090E021100196112331F0212F30E02F5F8A
:100BF0003F4F820F931F2F2D30E08217930714F47D
:100C0000F81A01C0F12C832D897049F4FF2039F0C6
:100C1000B60180E290E00E94BD1CFA94F7CF22203A
:100C200029F0B601822D90E00E94BD1C33FC09C062
:100C3000FF2039F0B60180E390E00E94BD1CFA94D9
:100C4000F7CF37FE5AC0942D852D57FE02C090E095
:100C500080E0292E382E20E030E0A2014E19510903
:100C60005D874C87A201421953095F874E87612F28
:100C700070E044275527461B570B598B488B5FEF75
:100C80002516350649F4B6018EE290E02A8B3B8B9F
:100C90000E94BD1C3B892A89421453046CF04C8588
:100CA0005D854215530544F4EE85FF85E20FF31F81
:100CB000E60DF71D818101C080E351E0251A31085E
:100CC0002F5F3F4F48895989241635064CF0B601ED
:100CD00090E02A8B3B8B0E94BD1C2A893B89CFCF99
:100CE0002414350439F49A81963318F4953311F4A9
:100CF00004FF81E3B60190E04BC08A81813309F0A3
:100D00000F7EB60190E00E94BD1C111105C034FC9D
:100D100018C085E690E017C0B6018EE290E00E9410
:100D2000BD1C82E0EE24E394E80EF301E80FF11D10
:100D30008081B60190E00E94BD1C11508E2D91F76C
:100D4000E6CF85E490E0B6010E94BD1C57FC05C0CB
:100D50004114510439F404FF05C0519441945108E1
:100D60008DE201C08BE2B60190E00E94BD1C80E3E1
:100D70009AE0491651042CF08F5F5AE0451A510849
:100D8000F7CFB60190E00E94BD1CB601C201C0962B
:100D90000E94BD1C57C1833631F0833779F083350B
:100DA00009F058C021C05201E2E0AE0EB11CF201C0
:100DB0008081898301E010E0230114C05201F2E038
:100DC000AF0EB11CF2014080518026FF03C0612F9D
:100DD00070E002C06FEF7FEFC2012A8B0E94951C6A
:100DE0008C012A892F7715C05201F2E0AF0EB11C99
:100DF000F2014080518026FF03C0612F70E002C0E5
:100E00006FEF7FEFC2012A8B0E94811C8C012A891F
:100E10002068322E23FD1AC08F2D90E00817190785
:100E2000A8F4B60180E290E00E94BD1CFA94F4CFD1
:100E3000F20137FC859137FE81912F01B60190E0D8
:100E40000E94BD1CF110FA94015011090115110501
:100E500079F7F8C0843611F0893659F5520127FF29
:100E600009C0F4E0AF0EB11CF20160817181828192
:100E700093810AC0F2E0AF0EB11CF2016081718172
:100E8000072E000C880B990B2F76322E97FF09C086
:100E900090958095709561957F4F8F4F9F4F2068FB
:100EA000322E2AE030E0A3010E94181DE82EE61839
:100EB0003FC0022F853721F40F7E2AE030E01DC0AD
:100EC000097F8F3691F018F4883559F0C5C0803706
:100ED00019F0883711F0C0C0006104FF09C0046038
:100EE00007C024FF08C0066006C028E030E005C047
:100EF00020E130E002C020E132E0520107FF09C0EA
:100F0000F4E0AF0EB11CF2016081718182819381A6
:100F100008C0F2E0AF0EB11CF2016081718180E087
:100F200090E0A3010E94181DE82EE6180F77302EDE
:100F300036FE0BC0332D3E7FE11650F434FE0AC05E
:100F400032FC08C0332D3E7E05C00E2D332D03C06C
:100F50000E2D01C0012F34FF0CC0FE01EE0DF11D5E
:100F60008081803311F4397E08C032FF05C00E5FE6
:100F700004C0832F867809F00F5F33FD13C030FF64
:100F800006C01E2D0F1518F41F0D101B0F2D0F1569
:100F900068F4B60180E290E03B8B0E94BD1C0F5FBD
:100FA0003B89F5CF0F1510F4F01A01C0F12C34FF76
:100FB00012C0B60180E390E03B8B0E94BD1C3B89D0
:100FC00032FF17C031FD03C088E790E002C088E51A
:100FD00090E0B6010CC0832F867859F031FF02C033
:100FE0008BE201C080E237FD8DE2B60190E00E9405
:100FF000BD1CE11638F4B60180E390E00E94BD1CF0
:101000001150F7CFEA94F301EE0DF11D8081B60186
:1010100090E00E94BD1CE110F5CF14C0F4E0FF1574
:1010200058F584E0F81A33FE1EC0211026C003FFD5
:101030002AC008E610E0F32DF0713F2EF8018491EC
:10104000811124C0FF2009F4E5CCB60180E290E0D4
:101050000E94BD1CFA94F6CFF6018681978126C0C6
:101060008FEF9FEF23C0B60180E290E00E94BD1C8D
:10107000FA94F110F8CFD9CFF12CB601822D90E07F
:101080000E94BD1CD4CF0CE610E0D5CF31108052A9
:10109000B60190E00E94BD1C0F5F1F4FCFCF23E031
:1010A0002F1510F483E0BECFF12CC1CF6396E2E19F
:1010B0000C9433201F920F920FB60F9211242F938E
:1010C0003F934F935F936F937F938F939F93AF93D0
:1010D0002091C7033091C8034091C9035091CA03BE
:1010E0006091CB037091CC038091CD039091CE039E
:1010F000A1E00E944E202093C7033093C803409381
:10110000C9035093CA036093CB037093CC038093BD
:10111000CD039093CE032091C7033091C8038091F3
:10112000C9038091CA038091CB038091CC03809145
:10113000CD038091CE03317040E050E060E070E07C
:1011400080E090E0A0E00E94632019F481E08093A9
:10115000C6032091C7038091C8038091C903809181
:10116000CA038091CB038091CC038091CD03809101
:10117000CE032F7030E040E050E060E070E080E0AF
:1011800090E0A0E00E94632019F481E08093C50301
:10119000AF919F918F917F916F915F914F913F910F
:1011A0002F910F900FBE0F901F901895F894E0EBC1
:1011B000F0E01082808182608083808189708083EA
:1011C0008081806A8083E1EBF0E08081837080839E
:1011D00080818460808389EF8093B3001092B20095
:1011E000E0E7F0E08081816080837894089583E671
:1011F0000E9433198430D8F30895CF92DF92EF9292
:10120000FF920F931F93CF93DF93CDB7DEB7609715
:101210000FB6F894DEBF0FBECDBF8E010F5F1F4F1C
:101220007E0181E1E80EF11C680188E090E00E94F7
:10123000341AF601819391936F01EE15FF05A9F71A
:1012400029EC31E0C80148E0FC01A191B191CF0146
:10125000F901542F01900D925A95E1F72F5F3F4FFE
:101260008E159F0589F740E8B80183E60E94F318C0
:101270000E94F70821EC31E0C80148E0FC01A1918F
:10128000B191CF01F901542F01900D925A95E1F7D8
:101290002F5F3F4F8E159F0589F741E8B80183E620
:1012A0000E94F3180E94F70829EB31E0C80148E0DA
:1012B000FC01A191B191CF01F901542F01900D9240
:1012C0005A95E1F72F5F3F4F8E159F0589F742E84A
:1012D000B80183E60E94F3180E94F70821EB31E081
:1012E000C80148E0FC01A191B191CF01F901542F4F
:1012F00001900D925A95E1F72F5F3F4F8E159F0594
:1013000089F743E8B80183E60E94F3180E94F708C2
:1013100029EA31E0C80148E0FC01A191B191CF0177
:10132000F901542F01900D925A95E1F72F5F3F4F2D
:101330008E159F0589F744E8B80183E60E94F318EB
:101340000E94F70821EA31E0C80148E0FC01A191C0
:10135000B191CF01F901542F01900D925A95E1F707
:101360002F5F3F4F8E159F0589F745E8B80183E64B
:101370000E94F31864E670E080E090E00E944E0462
:10138000F801819191918F01009711F00E94C91A83
:101390000E151F05A9F760960FB6F894DEBF0FBEB5
:1013A000CDBFDF91CF911F910F91FF90EF90DF9014
:1013B000CF9008950F931F93CF93DF93EC018B0190
:1013C0000E94F70883E60E947C18A801BE0183E60C
:1013D000DF91CF911F910F910C94C818FF920F933A
:1013E0001F93CF93DF931F92CDB7DEB78C01F62EFC
:1013F00079830E94F70891E1692F6F1983E60E94B3
:10140000B4184F2D5981B80183E60F90DF91CF9129
:101410001F910F91FF900C94C818FF920F931F9388
:10142000CF93DF931F92CDB7DEB78C01F62E798371
:101430000E94F70891E2692F6F1983E60E94B418A1
:101440004F2D5981B80183E60F90DF91CF911F9105
:101450000F91FF900C94C8188F929F92AF92BF92F9
:10146000CF92DF92EF92FF92CF93DF93CDB7DEB7AB
:1014700028970FB6F894DEBF0FBECDBF49015A01C1
:101480002091C7032983E091C803EA83F091C9033F
:10149000FB832091CA032C83E091CB03ED83F09171
:1014A000CC03FE832091CD032F83E091CE03E88708
:1014B0000E94921E23EF36E64FE55FE30E94471F2E
:1014C0006B017C0169817A818B819C816819790922
:1014D0008A099B090E94901E9B01AC01C701B601BD
:1014E0000E94E81D28960FB6F894DEBF0FBECDBF50
:1014F000DF91CF91FF90EF90DF90CF90BF90AF90B2
:101500009F908F9008954F925F926F927F928F92EB
:101510009F92AF92BF92CF92DF92EF92FF920F9382
:101520001F93CF93DF9300D000D0CDB7DEB770917B
:10153000C7036091C8035091C9034091CA038091C9
:10154000CB038091CC038091CD038091CE039B018E
:10155000CA013093A4022093A5029093A60280931F
:10156000A70288E50E94B0196093B4027093B50297
:101570008093B6029093B702C090B002D090B102AF
:10158000E090B202F090B3024B015C018C189D0810
:10159000AE08BF0875016401FF0CCC08DC2C760195
:1015A0007091C7036091C8035091C9034091CA0369
:1015B0008091CB038091CC038091CD038091CE03A9
:1015C0009B01CA0130939C0220939D0290939E023E
:1015D00080939F0288E50E94F2192B013C016093E1
:1015E000AC027093AD028093AE029093AF028091F3
:1015F000A4029091A502A091A602B091A7028983AE
:101600009A83AB83BC838091A0029091A102A091A8
:10161000A202B091A30229813A814B815C81281BEF
:10162000390B4A0B5B0BA091B902B091BA020E9430
:101630000F200E94901E23EF36E64FE55FE30E94E5
:10164000E81D0E945A1E9B01932F990F990BB82DEC
:10165000B095A92DA095FA2DF095EB2DE0951C2DB8
:101660001095492F592F692F792F892FAB2EBA2E1C
:10167000CF2EDE2EE12EF12E012F0E945A20A1E066
:101680000E94632009F02CF48091B8028E5F809351
:10169000B8028091B4029091B502A091B602B091C7
:1016A000B7028093B0029093B102A093B202B093BC
:1016B000B30289819A81AB81BC818093A00290930F
:1016C000A102A093A202B093A3024092A80250925A
:1016D000A9026092AA027092AB0280919C02909142
:1016E0009D02A0919E02B0919F02809398029093D8
:1016F0009902A0939A02B0939B020F900F900F90C3
:101700000F90DF91CF911F910F91FF90EF90DF909D
:10171000CF90BF90AF909F908F907F906F905F9091
:101720004F9008958091C5038823A1F18091BB0259
:101730009091BC0282309105E1F054F4009799F049
:10174000019731F560E288E50E945C1960E216C0FD
:1017500083309105B9F00497D9F468EE88E50E94CA
:101760005C1968E10BC060E088E50E945C1960E0EC
:1017700005C060EE88E50E945C1960EE88E50E9475
:10178000741908C068E188E50E945C1968EEF6CF1C
:101790000E94830A1092C5030895CF92DF92EF92C0
:1017A000FF926B017C010E94C6146AE071E08FEC2D
:1017B00093E00E94720F2AE030E0B701A6018FEC9F
:1017C00093E0FF90EF90DF90CF900C94511026E0C3
:1017D00040E056E960E070E08FEC93E00E943C123C
:1017E0006FEC73E087E493E00E94D8168CE694E0F7
:1017F0000E943C130E94D60864E670E080E090E00E
:101800000E944E046CEE71E08FEC93E00E944E0F4C
:1018100040E150E066EC70E08FEC93E00E943610FF
:1018200068EE71E08FEC93E00E947F0F65E083E645
:101830000E94A01883E60E94701883E60E947C181C
:1018400083E60E94881883E60E94941862EE71E095
:101850008FEC93E00E947F0F65EC71E08FEC93E0DA
:101860000E944E0F0E94FD0883E60E9470186FEBE5
:1018700071E08FEC93E00E947F0F6EE971E08FECD6
:1018800093E00E944E0F40E150E060EB70E08FEC7F
:1018900093E00E9436106AE971E08FEC93E00E94B9
:1018A0007F0F61E070E088E50E948C1960E088E5B8
:1018B0000E945C1960E088E50E94741988E50E9426
:1018C000A41988E50E94B0196093B0027093B10228
:1018D0008093B2029093B30288E50E94F21960935C
:1018E000A8027093A9028093AA029093AB0264E9C4
:1018F00071E08FEC93E00E947F0F65E171E08FEC67
:1019000093E00E94720F25E030E043EF56E66FE56A
:101910007FE38FEC93E00E9445116CE271E08FEC65
:1019200093E00E94720F4AE050E06DE770E08FECA8
:1019300093E00E9436106CE371E08FEC93E00E941C
:10194000720F4AE050E060E170E08FEC93E00E949B
:1019500036106EE371E08FEC93E00E94720F20E18D
:1019600030E040E050E06DE770E080E090E00E9401
:101970002C0AAB01BC0122E030E08FEC93E00E9426
:10198000451163E471E08FEC93E00E94720F4AE02E
:1019900050E060E170E08FEC93E00E9436106EE35F
:1019A00071E08FEC93E00E94720F6091B902709128
:1019B000BA02CB01770FAA0BBB0BBC01CD0122E011
:1019C000660F771F881F991F2A95D1F70E94901ED6
:1019D00023EF36E64FE55FE30E94E81D0E945A1EA2
:1019E000AB01770F660B770B2AE030E08FEC93E0CA
:1019F0000E9451106AE671E08FEC93E00E944E0F56
:101A00006EE070E08CE591E00C94DA0987E493E0F5
:101A10000E94C6168EE393E00E94F1158BE293E0DC
:101A20000E942A1682E293E00E94AE168FE093E0B5
:101A30000E949B1785E093E00E9421168BED809316
:101A4000970208950F931F93CF93DF93CDB7DEB71F
:101A50006B970FB6F894DEBF0FBECDBF0E949B15EB
:101A6000029781F50E94920B8091C603882351F161
:101A700083E60E94701861E070E087E992E00E94BE
:101A8000EE090E949315182F092F0E948B150F93B2
:101A90001F939F938F938BE691E09F938F938E017B
:101AA0000C5E1F4F1F930F930E94F51C65E070E0C2
:101AB000C8010E940D0A1092C6030FB6F894DEBF4B
:101AC0000FBECDBF87E493E00E940A1787E493E03E
:101AD0000E9409170E94F515882309F4E1C087E4E4
:101AE00093E00E9409170E94F2158B3809F4CFC0C9
:101AF000803961F08A3809F0F4C087E493E00E94ED
:101B0000091762E273E00E94AF16EBC087E493E02E
:101B10000E9409176DE273E00E943A168BE293E08F
:101B20000E94A415893438F48BE293E00E94A41536
:101B3000082F10E002C008E410E08BE293E00E945E
:101B40009A16A801BC018DEB92E00E948C1C80913A
:101B5000BD02843531F48EEB92E00E947F1B0E941F
:101B6000CD0B8BE293E00E94A415893430F48BE214
:101B700093E00E94A415282F01C028E48BE293E093
:101B80002B8F0E9438162B8D4DEB52E0BC01CE01FD
:101B900001960E94B6178C819B81909311038093CC
:101BA00012038D819E8190931403809313038F8180
:101BB0008093150388E0FE013896A6E1B3E001901A
:101BC0000D928A95E1F78889998990931F038093F4
:101BD0001E038A89809320038B89809321036FE001
:101BE00073E087E493E00E94F7178091BD02282FED
:101BF000082E000C330B205331092A30310598F59B
:101C00008233B9F054F4813331F581E090E0909360
:101C1000BC028093BB0281E813C08333A1F08433FC
:101C2000D1F484E090E09093BC028093BB028EE7F5
:101C300007C082E090E09093BC028093BB0284E8EE
:101C4000809397024EC083E090E09093BC02809313
:101C5000BB028FE7F5CF8BED809397021092BC0209
:101C60001092BB023EC08335E1F58EE4809397026B
:101C70008EEB92E00E94611B9093BA028093B902AE
:101C800085E090E09093BC028093BB022AC087E479
:101C900093E00E94091765E073E00E94221621C0BC
:101CA00087E493E00E9409170E94F8158823C9F081
:101CB00065E771E08FEC93E00E94720F87E493E098
:101CC0000E9409170E94001640E150E0682F8FEC37
:101CD00093E00E944A106FE971E08FEC93E00E945C
:101CE000910F6B960FB6F894DEBF0FBECDBFDF919C
:101CF000CF911F910F91089580E090E008951F9279
:101D00000F920FB60F9211242F938F939F93EF93FF
:101D1000FF93E091DF03F091E0038081E091E50320
:101D2000F091E60382FD12C090818091E8038F5FFD
:101D30008F732091E903821751F0E091E803F0E0FE
:101D4000E153FC4F958F8093E80301C08081FF91A0
:101D5000EF919F918F912F910F900FBE0F901F9039
:101D600018951F920F920FB60F9211242F933F9345
:101D70004F935F936F937F938F939F93AF93BF9393
:101D8000EF93FF938FEC93E00E94B211FF91EF91DC
:101D9000BF91AF919F918F917F916F915F914F9183
:101DA0003F912F910F900FBE0F901F9018958FECC1
:101DB00093E00E94671121E0892B09F420E0822F33
:101DC0000895EFECF3E01382128288EE93E0A0E036
:101DD000B0E084839583A683B78384EE91E09183FA
:101DE000808385EC90E09587848784EC90E09787EA
:101DF000868780EC90E0918B808B81EC90E0938BD8
:101E0000828B82EC90E0958B848B86EC90E0978BB4
:101E1000868B118E128E138E148E0895CF92DF92C0
:101E2000EF92FF920F931F93CF93DF936C017A0190
:101E30008B01C0E0D0E0CE15DF0589F0D8016D91AF
:101E40008D01D601ED91FC910190F081E02DC6014C
:101E50000995892B11F47E0102C02196ECCFC701B0
:101E6000DF91CF911F910F91FF90EF90DF90CF9076
:101E700008956115710579F0FB0101900020E9F7E3
:101E80003197AF01461B570BDC01ED91FC910280AD
:101E9000F381E02D099480E090E00895EF92FF92A5
:101EA0000F931F93CF93DF938C017B01C0E0D0E0B1
:101EB000F701EC0FFD1F6491662361F0D801ED91ED
:101EC000FC910190F081E02DC8010995892B11F05A
:101ED0002196EECFCE01DF91CF911F910F91FF9010
:101EE000EF9008950C94390FDC01ED91FC91019075
:101EF000F081E02D099461ED71E00C94390F0F939E
:101F00001F93CF93DF93EC010E944E0F8C01CE0103
:101F10000E947B0F800F911FDF91CF911F910F9136
:101F200008950F931F93CF93DF93EC010E94390F15
:101F30008C01CE010E947B0F800F911FDF91CF910A
:101F40001F910F9108954F925F926F927F92EF923F
:101F5000FF920F931F93CF93DF93CDB7DEB7A19777
:101F60000FB6F894DEBF0FBECDBF7C01FA01CB01E6
:101F700019A2223008F42AE08E010F5D1F4F422E75
:101F8000512C612C712CBF01A30192010E94CD1F25
:101F9000F901CA01015011096A3014F4605D01C0F1
:101FA000695CD8016C93232B242B252B61F7B80196
:101FB000C7010E94390FA1960FB6F894DEBF0FBE7D
:101FC000CDBFDF91CF911F910F91FF90EF907F9048
:101FD0006F905F904F900895CF92DF92EF92FF92B3
:101FE0000F931F93CF93DF93EC016A017B012115BF
:101FF000310579F4E881F9810190F081E02D642FB9
:10200000DF91CF911F910F91FF90EF90DF90CF90D4
:1020100009942A303105E9F477FF1AC06DE20E9475
:10202000740F8C0144275527BA014C195D096E09BC
:102030007F092AE0CE010E94A30F800F911FDF913C
:10204000CF911F910F91FF90EF90DF90CF90089567
:102050002AE0B701A601CE01DF91CF911F910F9128
:10206000FF90EF90DF90CF900C94A30F9A01AB01FB
:10207000770F660B770B0C94EC0F2115310541F4AB
:10208000DC01ED91FC910190F081E02D642F099429
:102090000C94A30F9A01462F50E060E070E00C947E
:1020A0003D100F931F93CF93DF93EC010E943D10DF
:1020B0008C01CE010E947B0F800F911FDF91CF9189
:1020C0001F910F9108954F925F926F927F928F921E
:1020D0009F92AF92BF92CF92DF92EF92FF92CF93F7
:1020E000DF93EC016A017B01B22E9A01AB01C701BB
:1020F000B6010E94B41F882319F064ED71E027C077
:1021000026013701E89477F82FEF3FEF4FE75FE7BD
:10211000C301B2010E94B41F81110DC02FEF3FEF28
:102120004FE75FE7C301B2010E94E31D18161CF4DC
:1021300068ED71E00CC02FEF3FEF4FE75FE4C701A0
:10214000B6010E94421F18169CF46CED71E0CE019E
:10215000DF91CF91FF90EF90DF90CF90BF90AF9045
:102160009F908F907F906F905F904F900C94390F5D
:102170002FEF3FEF4FE75FECC701B6010E94E31D71
:1021800087FDE3CF20E030E0A901C701B6010E943E
:10219000E31D87FF0AC06DE2CE010E94740F4C015F
:1021A000F7FAF094F7F8F09402C0812C912CA12C4E
:1021B00060E070E080E09FE3AB1441F020E030E0AD
:1021C00040E251E40E94E81DA394F6CF9B01AC01CC
:1021D000C701B6010E94771D2B013C010E94611EC0
:1021E0006B017C010E94901E9B01AC01C301B201F6
:1021F0000E94761D2B013C012AE0B701A601CE0109
:102200000E94A30F7C01E80CF91CBB2031F06EE2A8
:10221000CE010E94740FE80EF91EDB2CDD2029F19F
:1022200020E030E040E251E4C301B2010E94471FC8
:102230002B013C010E94611E4B01A12CB12C2AE014
:10224000B501A401CE010E94A30FE80EF91EC5013D
:10225000B4010E94901E9B01AC01C301B2010E9417
:10226000761D2B013C01DA94D9CFC701DF91CF91C4
:10227000FF90EF90DF90CF90BF90AF909F908F90A6
:102280007F906F905F904F9008950F931F93CF931F
:10229000DF93EC010E9463108C01CE010E947B0F42
:1022A000800F911FDF91CF911F910F910895089595
:1022B0000E9413040E9457110E94E70BC4EAD1E167
:1022C0000E94220D2097E1F30E94A411F9CFFC0196
:1022D000918D228D892F90E0805C9F4F821B910908
:1022E0008F7399270895FC01918D828D981731F095
:1022F000828DE80FF11D858D90E008958FEF9FEF9F
:102300000895FC01918D828D981761F0828DDF0117
:10231000A80FB11D5D968C91928D9F5F9F73928FD8
:1023200090E008958FEF9FEF0895FC01538D448D49
:10233000252F30E0842F90E0821B930B541710F070
:10234000CF9608950197089587ED9EE0892B49F077
:1023500080E090E0892B29F00E94D70E81110C9427
:1023600000000895FC01848DDF01A80FB11DA35A60
:10237000BF4F2C91848D90E001968F739927848FA5
:10238000A689B7892C93A089B1898C9180648C939C
:10239000938D848D981306C00288F389E02D808187
:1023A0008F7D80830895CF93DF93EC01888D882300
:1023B000C9F0EA89FB89808185FD05C0A889B989B2
:1023C0008C9186FD0FC00FB607FCF5CF808185FF8D
:1023D000F2CFA889B9898C9185FFEDCFCE010E94FB
:1023E000B211E7CFDF91CF910895EF92FF920F9353
:1023F0001F93CF93DF93EC0181E0888F9B8D8C8DB1
:10240000981305C0E889F989808185FD24C0F62EDE
:102410000B8D10E00F5F1F4F0F731127E02E8C8D77
:10242000E8120CC00FB607FCFACFE889F989808161
:1024300085FFF5CFCE010E94B211F1CF8B8DFE0149
:10244000E80FF11DE35AFF4FF0820B8FEA89FB89F9
:102450008081806207C0EE89FF896083E889F989FD
:1024600080818064808381E090E0DF91CF911F9133
:102470000F91FF90EF900895CF92DF92EF92FF922D
:102480001F93CF93DF93EC016A017B01122FE88940
:10249000F98982E080834115514E61057105B1F0E3
:1024A00060E079E08DE390E0A70196010E94CD1FE6
:1024B000DA01C9010197A109B109B695A7959795C8
:1024C0008795AC01411580E15807A8F0E889F989A2
:1024D000108260E874E88EE190E0A70196010E9406
:1024E000CD1FBA01A90141505109610971097695C1
:1024F000679557954795EC85FD855083EE85FF855B
:102500004083188EEC89FD891083EA89FB898081DC
:1025100080618083EA89FB89808188608083EA8981
:10252000FB89808180688083EA89FB8980818F7D37
:102530008083DF91CF911F91FF90EF90DF90CF903C
:10254000089580919C0490E020919D04821B910944
:10255000089590919D0480919C04981750F4E92F60
:10256000F0E0E256FB4F208130E09F5F90939D04A6
:1025700002C02FEF3FEFC9010895E0919D048091C3
:102580009C04E81730F4F0E0E256FB4F808190E0C5
:1025900008958FEF9FEF08950895CF92DF92EF9205
:1025A000FF920F931F93CF93DF937C01262F972FDA
:1025B0008A0180917804882391F0C62FD72F6E016D
:1025C000C40ED51ECC15DD0571F06991D701ED91D2
:1025D000FC910190F081E02DC7010995F3CF642FA4
:1025E000822F0E940A03C801DF91CF911F910F91A2
:1025F000FF90EF90DF90CF900895CF93DF931F92DD
:10260000CDB7DEB76983209178042223D1F02091E1
:102610007904203240F021E030E0FC013383228352
:1026200080E090E015C080917A04E82FF0E0E55852
:10263000FB4F998190838F5F80937A048093790414
:1026400005C061E0CE0101960E940A0381E090E09E
:102650000F90DF91CF910895FC011382128288EED2
:1026600093E0A0E0B0E084839583A683B78386EFF0
:1026700091E091838083089510929D0410929C04B0
:1026800010927A04109279040C94F50381E08093FF
:10269000780460939B0410927A0410927904089550
:1026A0000F93062F21E0409179046BE774E080914D
:1026B0009B040E94320310927A04109279041092C3
:1026C00078040F9108954F925F926F927F92AF922C
:1026D000BF92CF92EF92FF920F931F93CF93DF930E
:1026E0005C01F62ED42F28013901EE2021F10E9441
:1026F0004613CE2DC43008F0C3E0C150C0F0D50160
:10270000ED91FC91B8E0CB9FC0011124A30192018F
:1027100004C056954795379527958A95D2F7CA01F3
:10272000B9010190F081E02DC5010995E6CF60E087
:10273000C5010E9450134D2FD13208F040E22C2DDC
:102740006EE974E08F2D0E94880310929D0480939F
:102750009C04DF91CF911F910F91FF90EF90CF904C
:10276000BF90AF907F906F905F904F900895CF9201
:10277000EF920F931F93C22EE12C00E010E098011E
:102780000E9463131F910F91EF90CF90089521E065
:102790000C94B71361E00C9450138CE694E00C9405
:1027A0002C136F927F928F929F92AF92BF92CF9293
:1027B000DF92EF92FF920F931F93CF93DF93EA0183
:1027C0002CE3C22ED12CE12CF12CA70196010E9402
:1027D000CD1F6883CA01B901A70196010E94CD1FD0
:1027E0006983CA01B90128E130E040E050E00E946D
:1027F000CD1F69017A016A83CA01B9016C5F7F4FFD
:102800008F4F9F4F27E030E040E050E00E94CD1F07
:102810006F5F6B83812C912C540140E034E6632E72
:10282000712C00E911E0242F30E02E54384FF901CB
:10283000E370FF27309789F4C901B3010E94B91FE3
:10284000892B31F4C901B8010E94B91F892B29F4E1
:102850008EE691E0A0E0B0E004C08DE691E0A0E05B
:10286000B0E0880E991EAA1EBB1ED501C401AA277E
:10287000BB27C816D906EA06FB0610F04F5FD3CF78
:102880004E83309799F4C90164E670E00E94B91F45
:10289000892B39F4C90160E971E00E94B91F892BC5
:1028A00029F48EE691E0A0E0B0E004C08DE691E06E
:1028B000A0E0B0E0881A990AAA0ABB0AC818D90889
:1028C000EA08FB08C90164E670E00E94B91F8C01A8
:1028D000C90160E971E00E94B91FA4E0B2E020E004
:1028E000213041F4309751F40115110529F4009776
:1028F00029F402C04C9103C04DE101C04CE150E00D
:1029000060E070E0C416D506E606F70640F0C41A8B
:10291000D50AE60AF70A2F5F11962C3009F72F5FC8
:102920002D83C394CC82DF91CF911F910F91FF90A3
:10293000EF90DF90CF90BF90AF909F908F907F905F
:102940006F900895CF92DF92EF92FF92C090CE04E5
:10295000D090CF04E090D004F090D1046C157D05A8
:102960008E059F0571F06B017C0142ED54E00E94E1
:10297000D113C092CE04D092CF04E092D004F09252
:10298000D104FF90EF90DF90CF9008950F931F93A5
:102990006093CA047093CB048093CC049093CD04CD
:1029A0000091060110910701209108013091090161
:1029B000DC01CB01800F911FA21FB31F8093C204C3
:1029C0009093C304A093C404B093C50482E090E044
:1029D0009093C1048093C0040E9488046093C6044D
:1029E0007093C7048093C8049093C9041F910F91FA
:1029F0000895CF92DF92EF92FF920F931F930E9460
:102A00008804C090C604D090C704E090C804F09039
:102A1000C9048B019C010C191D092E093F098091E5
:102A2000CA049091CB04A091CC04B091CD04083E8F
:102A3000134021053105D0F00196A11DB11D8093F1
:102A4000CA049093CB04A093CC04B093CD04B701F7
:102A5000A60148515C4F6F4F7F4F4093C60450937F
:102A6000C7046093C8047093C904C9CF4091C204DD
:102A70005091C3046091C4047091C50484179507F4
:102A8000A607B707C8F1E091BE04F091BF043097E4
:102A900099F10995611571058105910519F00E945B
:102AA000C6142AC0409106015091070160910801A7
:102AB000709109018091CA049091CB04A091CC043B
:102AC000B091CD04840F951FA61FB71F8093C20439
:102AD0009093C304A093C404B093C50481E090E034
:102AE0002091C0043091C104232B11F480E090E0C8
:102AF0009093C1048093C0046091CA047091CB0488
:102B00008091CC049091CD041F910F91FF90EF9094
:102B1000DF90CF9008950E94F9140E94A214809132
:102B2000D40490E008950E94F9140E94A2148091A8
:102B3000D30490E008950E94F9148091C00490910C
:102B4000C10408958BE00895CF93DC011696CC91D3
:102B50001697ED91FC910280F381E02D0995C1500B
:102B6000C81B8C2FCF910895FC018681845F089546
:102B7000FC01611102C082850895613011F48185E4
:102B80000895623011F480850895633011F48781CF
:102B90000895643011F486850895653011F48585B3
:102BA0000895663011F484850895673011F48385A3
:102BB0000895683011F480890895693011F487858B
:102BC00008956A3011F4818908956B3011F4828977
:102BD00008950480F581E02DE60FF11D3C9780817A
:102BE00008950895FC0182810895FC01878108956C
:102BF00021E0FC018085811101C020E0822F089531
:102C0000FC0180850895DC01FB0112968C911297DE
:102C1000828317968C911797878315968C911597B9
:102C2000858318968C911897808716968C911697A5
:102C3000868313968C911397838314968C91848347
:102C400008950895FC0120813181FB0131832083A7
:102C50000C940316FC0184E192E091838083138637
:102C60001486158616861786108A118A128A089588
:102C70000B9608950F931F93CF93DF938C01EB0175
:102C8000DC018D919C9199838883C8010E94031671
:102C9000D801ED91FC91808190E0A0E0B0E0782F28
:102CA0006627552744279181892F90E0A0E0B0E066
:102CB000DC0199278827840F951FA61FB71F238142
:102CC000820F911DA11DB11D228130E0322F2227DC
:102CD000820F931FA11DB11D89879A87AB87BC877F
:102CE000848190E0A0E0B0E0782F66275527442744
:102CF0009581892F90E0A0E0B0E0DC01992788273A
:102D0000840F951FA61FB71F2781820F911DA11D3C
:102D1000B11D268130E0322F2227820F931FA11D83
:102D2000B11D8D879E87AF87B88BDF91CF911F91A3
:102D30000F910895CF93DF93DC011296CD91DC9132
:102D40001397ED91FC910280F381E02D0995FE012E
:102D5000E80FF11DCF01DF91CF9108950895FC0197
:102D600020813181FB01318320830C940316FC0107
:102D70001782108615821282138214821682089599
:102D8000FC011286118614860C94B716FC0112867B
:102D90001186148615861782108615820E969183E9
:102DA0008083E458FF4F8FEC93E0918380830895F4
:102DB000FC01E458FF4F718360830895FC01E458DF
:102DC000FF4F80819181DC01ED91FC910084F185C0
:102DD000E02D099521E0892B09F420E0822F089548
:102DE000FC01E458FF4F80819181DC01ED91FC9161
:102DF0000284F385E02D09950895FC01E458FF4F06
:102E000080819181DC01ED91FC910190F081E02DB8
:102E100009940895DF92EF92FF920F931F93CF933F
:102E2000DF93EC018F8181117AC08885811177C091
:102E300082E0F82E11E093E0E92E24E0D22E00E2A9
:102E4000CE010E94DE16882309F46DC0CE010E94D7
:102E5000F0168B879A85992399F08E3711F483E0C9
:102E600038C08D3769F4CE010E94DE16882331F018
:102E7000CE010E94F01680278B8702C01987E0CF11
:102E80008985882321F08B8580278B8719868A8501
:102E9000833020F02C859B85920F9C87813071F0C8
:102EA00040F0823079F0833089F48B858A83DA862A
:102EB000C7CF8B858E3721F61A87C2CF8B858B8340
:102EC000FA86BECF8B858C83EA86BACF8F3618F010
:102ED00082E0888728C0282F30E04C8150E04D5F89
:102EE0005F4F2417350779F49C859F3F31F49B850C
:102EF0009D8391E09F83188602C091E0988784505B
:102F00008E831A8610C08B85E881F9812E0F3F1FB2
:102F1000F901349780838A858F5F8A8791CFCE01AC
:102F20000E94C01685CFDF91CF911F910F91FF9026
:102F3000EF90DF900895FC0180E1828381E083833C
:102F40001582148216828CE192E09183808317822D
:102F500010861186128613861486158616868EEFC5
:102F60009FEF908B8787118A128A0895CF93DF9302
:102F7000EC0180E18A8381E08B835D834C832E8327
:102F80008CE192E0998388831F82188619861A86BD
:102F90001B861C861D861E8688E0FB01DE011796B7
:102FA00001900D928A95E1F78EEF9FEF988B8F87B6
:102FB000198A1A8ADF91CF9108950F931F93CF93A7
:102FC000442381F023E8260F223020F0262F2D7F86
:102FD000213141F4C62F8C016DE70E94FD1660E29D
:102FE0006C27C801CF911F910F910C94FD16CF92C1
:102FF000DF92FF920F931F93CF93DF938C01EB012E
:103000006EE70E94FD16E881F9810280F381E02DD0
:10301000CE010995F82EE881F9810280F381E02D37
:10302000CE010995D82E2F2D30E02E5F3F4F41E085
:10303000632FC8010E94DD1762E06D0D41E0C801F9
:103040000E94DD1741E06A81C8010E94DD1741E05E
:103050006B81C8010E94DD17FA808B81F80EC12CAC
:10306000D12CE881F9810280F381E02DCE01099510
:1030700090E0C816D906D4F4E881F9810190F08176
:10308000E02D6C2DCE01099541E0682FC8010E940A
:10309000DD17E881F9810190F081E02D6C2DCE01E2
:1030A0000995F80E8FEFC81AD80ADBCF6F2D6095FF
:1030B00041E0C801DF91CF911F910F91FF90DF9008
:1030C000CF900C94DD17CF93C82F60E08CE694E08E
:1030D0000E94FD126C2F8CE694E0CF910C94FD12AF
:1030E000682F8CE694E00E9446138CE00E946318DF
:1030F0008CE694E00C94CA13682F8CE694E00E944E
:10310000461381E00E9463188CE694E00C94CA1385
:10311000682F8CE694E00E94461384E00E946318B6
:103120008CE694E00C94CA13682F8CE694E00E941D
:10313000461383E10E9463188CE694E00C94CA1352
:10314000CF93C62F682F8CE694E00E94461388E147
:103150000E9463186C2F8CE694E00E94FD128CE6AE
:1031600094E0CF910C94CA13CF93C62F682F8CE6AE
:1031700094E00E94461382E00E9463186C2F8CE654
:1031800094E00E94FD128CE694E0CF910C94CA1357
:103190000F931F93CF93DF938B01EA011C161D063B
:1031A000E4F4682F8CE694E00E94461360E08CE61D
:1031B00094E00E94FD12C00FD11FF80161918F01B0
:1031C0008CE694E00E94FD120C171D07B1F78CE607
:1031D00094E00E94CA1381E001C080E0DF91CF91AA
:1031E0001F910F910895EF92FF920F931F93CF932A
:1031F000DF9390E8940F983070F5C42F8B01682FFF
:103200008CE694E00E9446138BE10E9463186C2FB9
:103210008CE694E00E94FD12E801780180E1E80E5E
:10322000F11C00E010E0E881F981E00FF11F6081FE
:103230008CE694E00E94FD120F5F1F4F08301105CD
:1032400091F72296CE15DF0561F78CE694E00E9497
:10325000CA1381E001C080E0DF91CF911F910F91EF
:10326000FF90EF900895CF93C82F682F8CE694E0DD
:103270000E94461360E08CE694E00E94FD128CE60A
:1032800094E00E94CA1341E06C2F8CE694E00E9407
:10329000C7138CE694E00E94A112892BD1F38CE62F
:1032A00094E00E94A912CF910895DC01ED91FC9168
:1032B0000190F081E02D0994CF93C62F682F8CE602
:1032C00094E00E94461360E08CE694E00E94FD12B8
:1032D0006C2FCC0F770B8CE694E00E9455198CE68E
:1032E00094E0CF910C94CA13CF93C62F682F8CE62D
:1032F00094E00E94461361E08CE694E00E94FD1287
:103300006C2FCC0F770B8CE694E00E9455198CE65D
:1033100094E0CF910C94CA13CF93DF93EB01682F05
:103320008CE694E00E9446136FE08CE694E00E94E5
:10333000FD12BE018CE694E00E9455198CE694E0E3
:10334000DF91CF910C94CA13682F8CE694E00E9411
:10335000461380E20E9463188CE694E00C94CA1332
:10336000CF92DF92EF92FF92CF93DF93C82F682F17
:103370008CE694E00E94461362E08CE694E00E94A2
:10338000FD128CE694E00E94CA1344E06C2F8CE698
:1033900094E00E94C7138CE694E00E94A112049767
:1033A000D4F3C4E0D0E0C12CD12C76018CE694E0BB
:1033B0000E94A912092E000CAA0BBB0BBC01CD0167
:1033C0006C297D298E299F29219729F0CC24D62E7E
:1033D000E72EF82EEBCFDF91CF91FF90EF90DF90AB
:1033E000CF900895CF92DF92EF92FF92CF93DF9329
:1033F000C82F682F8CE694E00E94461366E08CE6A6
:1034000094E00E94FD128CE694E00E94CA1344E00E
:103410006C2F8CE694E00E94C7138CE694E00E9427
:10342000A1120497D4F3C4E0D0E0C12CD12C7601D2
:103430008CE694E00E94A912092E000CAA0BBB0B8B
:10344000BC01CD016C297D298E299F29219729F066
:10345000CC24D62EE72EF82EEBCFDF91CF91FF9024
:10346000EF90DF90CF900895CF93DF938230910556
:1034700010F482E090E0E091DB04F091DC0420E0C5
:1034800030E0C0E0D0E0309711F140815181481721
:103490005907C0F04817590761F48281938120973A
:1034A00019F09B838A832BC09093DC048093DB0408
:1034B00026C02115310519F04217530718F49A0157
:1034C000BE01DF01EF010280F381E02DDCCF211589
:1034D000310509F1281B390B2430310590F412967F
:1034E0008D919C9113976115710521F0FB019383D8
:1034F000828304C09093DC048093DB04FD01329648
:1035000044C0FD01E20FF31F8193919322503109D2
:103510002D933C933AC02091D9043091DA04232BA7
:1035200041F420910201309103013093DA04209399
:10353000D90420910001309101012115310541F498
:103540002DB73EB74091040150910501241B350B66
:10355000E091D904F091DA04E217F307A0F42E1BEE
:103560003F0B2817390778F0AC014E5F5F4F2417E7
:10357000350748F04E0F5F1F5093DA044093D9048B
:103580008193919302C0E0E0F0E0CF01DF91CF9111
:1035900008950F931F93CF93DF93009709F48CC086
:1035A000FC013297138212820091DB041091DC043B
:1035B0000115110581F420813181820F931F209123
:1035C000D9043091DA042817390779F5F093DA0431
:1035D000E093D90471C0D80140E050E0AE17BF07B6
:1035E00050F412962D913C911397AD0121153105A0
:1035F00009F1D901F3CF9D01DA0133832283608180
:103600007181860F971F8217930769F4EC01288157
:103610003981260F371F2E5F3F4F318320838A81E8
:103620009B8193838283452B29F4F093DC04E09300
:10363000DB0442C01396FC93EE931297ED0149917F
:1036400059919E01240F351FE217F30771F4808111
:103650009181840F951F029611969C938E9382817F
:10366000938113969C938E931297E0E0F0E0D8013B
:1036700012968D919C911397009719F0F8018C0187
:10368000F6CF8D919C9198012E5F3F4F820F931F33
:103690002091D9043091DA042817390769F430975A
:1036A00029F41092DC041092DB0402C0138212820F
:1036B0001093DA040093D904DF91CF911F910F91F9
:1036C0000895FC0188279927E89421912032E9F395
:1036D000293010F02E30C8F32B3241F02D3239F45E
:1036E000689404C00E94B51C820F911D2191205343
:1036F0002A30C0F31EF4909581959F4F08951F9333
:10370000FC0199278827BC01E89411911032E9F354
:10371000193010F01E30C8F31B3251F01D3249F43D
:10372000689406C00E94A01C610F711D811D911D2F
:10373000119110531A30B0F33EF490958095709526
:1037400061957F4F8F4F9F4F1F910895F8940C9470
:103750008320283008F027E03327DA01990F311D44
:1037600087FD916000966105710539F432602E5F26
:103770003D9330E32A95E1F708959F3F30F080387C
:103780007105610509F03C5F3C5F3D93913008F0A5
:103790008068911DDF93CF931F930F93FF92EF9259
:1037A000192F987F9695E92F96959695E90FFF2703
:1037B000E653FF4F99273327EE24FF24A701E701A3
:1037C00005900894079428F4360FE71EF81E491F49
:1037D000511D660F771F881F991F0694A1F705904A
:1037E000079428F4E70EF81E491F561FC11D770FD6
:1037F000881F991F661F0694A1F70590079428F467
:10380000F80E491F561FC71FD11D880F991F661F2D
:10381000771F0694A1F70590079420F4490F561FCF
:10382000C71FD81F990F661F771F881F0694A9F717
:1038300084911095177041F0D695C7955795479587
:10384000F794E7941A95C1F7E0E7F0E068941590D3
:10385000159135916591959105907FE27395E118E9
:10386000F10A430B560BC90BD009C0F7E10CF11E4E
:10387000431F561FC91FD01D7EF4703311F48A9563
:10388000E6CFE894015030F0080F0AF40027021741
:1038900008F4202F2395022F7A3328F079E37D93C3
:1038A0002A95E9F710C07D932A9589F60694979595
:1038B0006795379517951794E118F10A430B560B46
:1038C000C90BD00998F023957E9173957A3308F04F
:1038D00070E37C932013B8F77E9170617D9330F094
:1038E000839571E37D9370E32A95E1F71124EF90BE
:1038F000FF900F911F91CF91DF91992787FD9095B0
:103900000895FC010590615070400110D8F7809532
:1039100090958E0F9F1F0895FB01DC0102C001905E
:103920000D9241505040D8F70895FC01615070400D
:1039300001900110D8F7809590958E0F9F1F0895E4
:10394000592F482F372F262F660F771F881F991F53
:10395000660F771F881F991F620F731F841F951FA3
:10396000660F771F881F991F08957AE0979F902D03
:10397000879F802D910D112408950F931F93CF934E
:10398000DF93FB01238121FD03C08FEF9FEF28C050
:1039900022FF16C046815781248135814217530783
:1039A00044F4A081B1819D012F5F3F4F318320837B
:1039B0008C93268137812F5F3F4F3783268310C03A
:1039C000EB01092F182F0084F185E02D0995892B33
:1039D000E1F68E819F8101969F838E83812F902FA8
:1039E000DF91CF911F910F910895AEE0B0E0EBEF22
:1039F000FCE10C9425200D891E8986E08C831A83B6
:103A000009838FEF9FE79E838D83AE01475E5F4FF3
:103A10006F89788DCE0101960E94DE042F81388552
:103A2000F801E20FF31F10822E96E4E00C9441207F
:103A3000FA01AA27283051F1203181F1E8946F93DF
:103A40006E7F6E5F7F4F8F4F9F4FAF4FB1E03ED085
:103A5000B4E03CD0670F781F891F9A1FA11D680F23
:103A6000791F8A1F911DA11D6A0F711D811D911D56
:103A7000A11D20D009F468943F912AE0269F1124CB
:103A80003019305D3193DEF6CF010895462F47702F
:103A9000405D4193B3E00FD0C9F7F6CF462F4F708A
:103AA000405D4A3318F0495D31FD4052419302D0E8
:103AB000A9F7EACFB4E0A69597958795779567958E
:103AC000BA95C9F700976105710508959B01AC018E
:103AD0000A2E06945795479537952795BA95C9F7B5
:103AE000620F731F841F951FA01D08955058BB2798
:103AF000AA270E948E1D0C94081F0E94FA1E38F0FF
:103B00000E94011F20F039F49F3F19F426F40C9411
:103B1000F71E0EF4E095E7FB0C94F11EE92F0E94CE
:103B2000191F58F3BA17620773078407950720F027
:103B300079F4A6F50C943B1F0EF4E0950B2EBA2FEA
:103B4000A02D0B01B90190010C01CA01A0011124A3
:103B5000FF27591B99F0593F50F4503E68F11A164F
:103B6000F040A22F232F342F4427585FF3CF4695E0
:103B700037952795A795F0405395C9F77EF41F1602
:103B8000BA0B620B730B840BBAF09150A1F0FF0FCC
:103B9000BB1F661F771F881FC2F70EC0BA0F621FB8
:103BA000731F841F48F4879577956795B795F795A8
:103BB0009E3F08F0B0CF9395880F08F09927EE0F3D
:103BC0009795879508950E94CD1E08F481E0089589
:103BD0000E94FC1D0C94081F0E94011F58F00E94B7
:103BE000FA1E40F029F45F3F29F00C94F11E5111A8
:103BF0000C943C1F0C94F71E0E94191F68F3992324
:103C0000B1F3552391F3951B550BBB27AA276217D8
:103C10007307840738F09F5F5F4F220F331F441FE5
:103C2000AA1FA9F335D00E2E3AF0E0E832D0915019
:103C30005040E695001CCAF72BD0FE2F29D0660F06
:103C4000771F881FBB1F261737074807AB07B0E849
:103C500009F0BB0B802DBF01FF2793585F4F3AF04F
:103C60009E3F510578F00C94F11E0C943C1F5F3F71
:103C7000E4F3983ED4F3869577956795B795F795D5
:103C80009F5FC9F7880F911D9695879597F90895BD
:103C9000E1E0660F771F881FBB1F62177307840759
:103CA000BA0720F0621B730B840BBA0BEE1F88F768
:103CB000E09508950E94611E6894B1110C943C1F18
:103CC00008950E94211F88F09F5798F0B92F9927D7
:103CD000B751B0F0E1F0660F771F881F991F1AF0F7
:103CE000BA95C9F714C0B13091F00E943B1FB1E002
:103CF00008950C943B1F672F782F8827B85F39F001
:103D0000B93FCCF3869577956795B395D9F73EF48F
:103D100090958095709561957F4F8F4F9F4F089537
:103D2000E89409C097FB3EF4909580957095619555
:103D30007F4F8F4F9F4F9923A9F0F92F96E9BB270B
:103D40009395F695879577956795B795F111F8CF87
:103D5000FAF4BB0F11F460FF1BC06F5F7F4F8F4FF2
:103D60009F4F16C0882311F096E911C0772321F0E8
:103D70009EE8872F762F05C0662371F096E8862F80
:103D800070E060E02AF09A95660F771F881FDAF7D7
:103D9000880F9695879597F90895990F0008550F04
:103DA000AA0BE0E8FEEF16161706E807F907C0F0C1
:103DB00012161306E407F50798F0621B730B840BC9
:103DC000950B39F40A2661F0232B242B252B21F4A3
:103DD00008950A2609F4A140A6958FEF811D811D43
:103DE000089597F99F6780E870E060E008959FEF7D
:103DF00080EC089500240A94161617061806090682
:103E0000089500240A941216130614060506089550
:103E1000092E0394000C11F4882352F0BB0F40F4D8
:103E2000BF2B11F460FF04C06F5F7F4F8F4F9F4F18
:103E3000089557FD9058440F551F59F05F3F71F09A
:103E40004795880F97FB991F61F09F3F79F0879501
:103E50000895121613061406551FF2CF4695F1DF8A
:103E600008C0161617061806991FF1CF869571051A
:103E7000610508940895E894BB2766277727CB014E
:103E800097F908950E94CD1E08F48FEF08950E94BF
:103E90005A1F0C94081F0E94FA1E38F00E94011F3E
:103EA00020F0952311F00C94F11E0C94F71E1124B0
:103EB0000C943C1F0E94191F70F3959FC1F3950F3E
:103EC00050E0551F629FF001729FBB27F00DB11D9E
:103ED000639FAA27F00DB11DAA1F649F6627B00D2E
:103EE000A11D661F829F2227B00DA11D621F739F17
:103EF000B00DA11D621F839FA00D611D221F749F25
:103F00003327A00D611D231F849F600D211D822F6B
:103F1000762F6A2F11249F5750409AF0F1F0882392
:103F20004AF0EE0FFF1FBB1F661F771F881F9150BF
:103F30005040A9F79E3F510580F00C94F11E0C945F
:103F40003C1F5F3FE4F3983ED4F3869577956795E1
:103F5000B795F795E7959F5FC1F7FE2B880F911DE9
:103F60009695879597F908950E94CD1E880B990B19
:103F7000089597FB072E16F4009407D077FD09D01B
:103F80000E946F2007FC05D03EF4909581959F4FCD
:103F90000895709561957F4F0895A1E21A2EAA1B8E
:103FA000BB1BFD010DC0AA1FBB1FEE1FFF1FA217E9
:103FB000B307E407F50720F0A21BB30BE40BF50BE6
:103FC000661F771F881F991F1A9469F7609570956F
:103FD000809590959B01AC01BD01CF010895EE0F36
:103FE000FF1F0590F491E02D0994A29FB001B39FAB
:103FF000C001A39F700D811D1124911DB29F700DF2
:10400000811D1124911D08950E94F51FA59F900DFB
:10401000B49F900DA49F800D911D11240895B7FFAA
:104020000C9404200E940420821B930B08952F926D
:104030003F924F925F926F927F928F929F92AF9238
:10404000BF92CF92DF92EF92FF920F931F93CF9385
:10405000DF93CDB7DEB7CA1BDB0B0FB6F894DEBF1C
:104060000FBECDBF09942A88398848885F846E8442
:104070007D848C849B84AA84B984C884DF80EE808C
:10408000FD800C811B81AA81B981CE0FD11D0FB695
:10409000F894DEBF0FBECDBFED0108950024A7FD4B
:1040A00000942A0F301D401D501D601D701D801D85
:1040B000901D08952A193B094C095D096E097F0975
:1040C000800B910B08950024A7FD00942A1730055A
:1040D0004005500560057005800590050895AA1BF0
:1040E000BB1B51E107C0AA1FBB1FA617B70710F0E3
:1040F000A61BB70B881F991F5A95A9F78095909515
:0A410000BC01CD010895F894FFCF33
:10410A000000DD0420002C01000054696D65207355
:10411A006574212000414456414E43455F50455243
:10412A005F5449434B5F4D4D203D200020696E731B
:10413A0074616E745F737065656428002C002920B1
:10414A003D20002064706D5F6F665F636F6D6D6107
:10415A006E6465645F7370656564280020737461BA
:10416A00727420636F6E736F6C6500253032643A27
:10417A0025303264002D2D3E206572726F722072D6
:10418A00656164696E67207061636B65742C206574
:10419A007272726F7220636F64653A2030780029F8
:1041AA00008080819294989E8080848484958E84F5
:1041BA00808080908985838F80808F838589908095
:1041CA008080848E9584848480809E989492818055
:1041DA00800D0A006E616E00696E66006F76660079
:1041EA0000000000F5110E0F9511D311671181110E
:1041FA00731100000000FD12CD127C0ECC12A11228
:10420A00A912BD121F1C1F1E1F1E1F1F1E1F1E1FAD
:10421A0000000000A415A21500000000B815B4158E
:00000001FF
